:100000000BC024C023C023C031C03FC01FC01EC0CE
:100010001DC01CC01BC01AC011241FBECFEDCDBF18
:1000200010E0A0E6B0E0EAE3F2E003C0C895319644
:100030000D92A236B107D1F710E0A2E6B0E001C000
:100040001D92AD36B107E1F79AD0F5C0D9CF1F9216
:100050000F920FB60F921124D898D998DA98DB989E
:10006000DC980F900FBE0F901F9018951F920F9263
:100070000FB60F921124DD98DE98DF98C698C598C8
:100080000F900FBE0F901F9018951F920F920FB6F2
:100090000F9211242F933F938F939F93EF93FF938E
:1000A00020916200822F90E0E82FF92FED59FF4F49
:1000B00030813323B9F0223081F0233028F4222319
:1000C00041F0213079F407C0233049F0243051F455
:1000D00008C0D89A07C0D99A05C0DA9A03C0DB9A3B
:1000E00001C0DC9A88599F4FE82FF92F808188231F
:1000F000B9F0223081F0233028F4222341F021305E
:1001000079F407C0233049F0243051F408C0DD9A57
:1001100007C0DE9A05C0DF9A03C0C69A01C0C59A1F
:100120002F5F20936200253010F0109262008091C2
:10013000620090E0E82FF92FED59FF4F20812DBD8F
:1001400088599F4FE82FF92F80818CBD80916000E6
:10015000882351F0809160008150809360008091ED
:100160006000882309F4C19AFF91EF919F918F91CC
:100170003F912F910F900FBE0F901F9018958FEF0A
:100180008ABB1BBA82E687BB88E388BB10BE87E0C8
:100190008FBD84E689BF789450EFA8E248E374E10C
:1001A0003EE760E7BA9AC29AB8985EB9ADB9779B54
:1001B000FECFB29B02C0B09BFCCFB09939C05EB9F4
:1001C0004DB98EB18076E9F3769BECCF86B39FB1C3
:1001D000992359F02FB190E088719070959587958B
:1001E0009595879588612817E9F6C1987093600006
:1001F0001FB8B89A3EB9769BFECFB89880E090E0E1
:100200006EB94DB92EB12076E9F3769BCBCF2FB1E5
:10021000E82FF92FED59FF4F20831FB8B89A3EB948
:10022000769BFECFB89801968A30910549F7BACFF0
:0A02300080E090E00895F894FFCFFD
:02023A0064005E
:00000001FF
