:1000000012C02AC029C028C027C026C044C024C0AE
:1000100023C022C021C020C01FC01FC02DC01CC0D3
:100020001BC01AC019C011241FBECFEDCDBF10E0F8
:10003000A0E6B0E0EEE2F2E002C005900D92A2363A
:10004000B107D9F710E0A2E6B0E001C01D92AD36CD
:10005000B107E1F796D0E9C0D3CF1F920F920FB648
:100060000F92112490989198D998D89892980F90BF
:100070000FBE0F901F9018951F920F920FB60F9200
:1000800011249398949895989698C0980F900FBEC5
:100090000F901F9018951F920F920FB60F92112478
:1000A0002F933F938F939F93EF93FF932091620041
:1000B000822F90E0FC01ED59FF4F30813323B9F0DE
:1000C000223081F0233028F4222341F0213079F4CA
:1000D00007C0233049F0243051F408C0909A07C07B
:1000E000919A05C0D99A03C0D89A01C0929A8859AA
:1000F0009F4FFC0180818823B9F0223081F02330AA
:1001000028F4222341F0213079F407C0233049F04C
:10011000243051F408C0939A07C0949A05C0959A68
:1001200003C0969A01C0C09A2F5F209362002530C9
:1001300010F0109262008091620090E0FC01ED5995
:10014000FF4F208126BF88599F4FFC0180818CBFC3
:1001500080916000882351F08091600081508093ED
:10016000600080916000882309F4C69AFF91EF91A6
:100170009F918F913F912F910F900FBE0F901F90E5
:10018000189583E08ABB91E497BB9EE198BB9FE7FB
:1001900091BB80BF83BF87E089BF789450EFA8E20E
:1001A00048E374E13EE760E7BF9AC79ABD985EB93D
:1001B000ADB9779BFECFB79B02C0B59BFCCFB5997D
:1001C00031C05EB94DB98EB18076E9F3769BECCF44
:1001D00086B39FB1992321F09FB18E71981721F7B3
:1001E000C698709360001FB8BD9A3EB9769BFECF4B
:1001F000BD9880E090E06EB94DB92EB12076E9F35C
:10020000769BD2CF2FB1FC01ED59FF4F20831FB851
:10021000BD9A3EB9769BFECFBD9801968A30910576
:0E02200051F7C2CF80E090E00895F894FFCF30
:02022E0064006A
:00000001FF
