:100000000BC024C023C023C031C03FC01FC01EC0CE
:100010001DC01CC01BC01AC011241FBECFEDCDBF18
:1000200010E0A0E6B0E0EAE2F2E003C0C895319645
:100030000D92A236B107D1F720E0A2E6B0E001C0F0
:100040001D92AD36B207E1F792D0EDC0D9CF1F9225
:100050000F920FB60F921124D898D998DA98DB989E
:10006000DC980F900FBE0F901F9018951F920F9263
:100070000FB60F921124DD98DE98DF98C698C598C8
:100080000F900FBE0F901F9018951F920F920FB6F2
:100090000F9211248F939F93EF93FF9380916200AF
:1000A000E82FF0E0ED59FF4F90819923A1F08230C5
:1000B00079F030F4882351F0813069F4D99A0BC07B
:1000C000833041F0843039F4DC9A05C0D89A03C0FB
:1000D000DA9A01C0DB9A80916200E82FF0E0E859DB
:1000E000FF4F90819923A1F0823079F030F488237A
:1000F00051F0813069F4DE9A0BC0833041F08430D6
:1001000039F4C59A05C0DD9A03C0DF9A01C0C69ACA
:10011000809162008F5F853018F48093620002C086
:1001200010926200E0916200F0E0ED59FF4F808193
:100130008DBDE0916200F0E0E859FF4F80818CBDF9
:1001400080916000882351F08091600081508093FD
:10015000600080916000811101C0C19AFF91EF9110
:100160009F918F910F900FBE0F901F9018958FEF5A
:100170008ABB1BBA82E687BB88E388BB10BE87E0D8
:100180008FBD84E689BF789430EF68E248E374E17C
:100190005EE7E0E7BA9AC29AB8983EB96DB9779B24
:1001A000FECF86B3982F9170282F247082FF02C053
:1001B0009923B9F3992311F02111ECCF3EB94DB930
:1001C0008EB18076E9F3769BE5CF86B39FB1992314
:1001D00039F09FB188718695869588618913DACF49
:1001E000C198709360001FB8B89A5EB9769BFECF35
:1001F000B89880E090E0EEB94DB92EB12076E9F3E1
:10020000769BC8CF2FB1A82FB92FAD59BF4F2C93D4
:100210001FB8B89A5EB9769BFECFB89801968A301F
:0A022000910549F7B7CFF894FFCF1E
:02022A0064006E
:00000001FF
