:1000000012C02AC029C028C027C026C044C024C0AE
:1000100023C022C021C020C01FC01FC02DC01CC0D3
:100020001BC01AC019C011241FBECFEDCDBF10E0F8
:10003000A0E6B0E0EEE2F2E002C005900D92A2363A
:10004000B107D9F720E0A2E6B0E001C01D92AD36BD
:10005000B207E1F792D0E9C0D3CF1F920F920FB64B
:100060000F92112490989198D998D89892980F90BF
:100070000FBE0F901F9018951F920F920FB60F9200
:1000800011249398949895989698C0980F900FBEC5
:100090000F901F9018951F920F920FB60F92112478
:1000A0008F939F93EF93FF9380916200E82FF0E08E
:1000B000ED59FF4F90819923A1F0823079F030F40F
:1000C000882351F0813069F4919A0BC0833041F05C
:1000D000843039F4929A05C0909A03C0D99A01C02D
:1000E000D89A80916200E82FF0E0E859FF4F9081A4
:1000F0009923A1F0823079F030F4882351F08130D7
:1001000069F4949A0BC0833041F0843039F4C09A7A
:1001100005C0939A03C0959A01C0969A8091620097
:100120008F5F853018F48093620002C010926200E5
:10013000E0916200F0E0ED59FF4F808186BFE091D1
:100140006200F0E0E859FF4F80818CBF8091600031
:10015000882351F0809160008150809360008091ED
:100160006000811101C0C69AFF91EF919F918F911C
:100170000F900FBE0F901F90189583E08ABB91E4FB
:1001800097BB9EE198BB9FE791BB80BF83BF87E091
:1001900089BF789430EF68E248E374E15EE7E0E716
:1001A000BF9AC79ABD983EB96DB9779BFECF86B30B
:1001B000982F907287FD03C0911104C005C0992348
:1001C000B1F3FACF87FDECCF3EB94DB98EB1807651
:1001D000E9F3769BE5CF86B39FB1992321F09FB1D8
:1001E0008E718913DDCFC698709360001FB8BD9AD9
:1001F0005EB9769BFECFBD9880E090E0EEB94DB938
:100200002EB12076E9F3769BCBCF2FB1DC01AD592F
:10021000BF4F2C931FB8BD9A5EB9769BFECFBD9899
:0E02200001968A30910551F7BBCFF894FFCFBD
:02022E0064006A
:00000001FF
